{
  "_format": "hh-sol-artifact-1",
  "contractName": "Transfer",
  "sourceName": "contracts/Lock.sol",
  "abi": [
    {
      "inputs": [],
      "stateMutability": "nonpayable",
      "type": "constructor"
    },
    {
      "inputs": [
        {
          "internalType": "uint256",
          "name": "_id",
          "type": "uint256"
        },
        {
          "internalType": "string",
          "name": "_option1",
          "type": "string"
        },
        {
          "internalType": "string",
          "name": "_option2",
          "type": "string"
        },
        {
          "internalType": "string",
          "name": "_option3",
          "type": "string"
        },
        {
          "internalType": "string",
          "name": "_source",
          "type": "string"
        }
      ],
      "name": "Check",
      "outputs": [
        {
          "internalType": "bool",
          "name": "",
          "type": "bool"
        }
      ],
      "stateMutability": "view",
      "type": "function"
    },
    {
      "inputs": [
        {
          "internalType": "uint256",
          "name": "_id",
          "type": "uint256"
        },
        {
          "internalType": "string",
          "name": "_source",
          "type": "string"
        },
        {
          "internalType": "string",
          "name": "_destination",
          "type": "string"
        },
        {
          "internalType": "string",
          "name": "_reason",
          "type": "string"
        },
        {
          "internalType": "uint256",
          "name": "_post",
          "type": "uint256"
        }
      ],
      "name": "UrgentTransfer",
      "outputs": [],
      "stateMutability": "nonpayable",
      "type": "function"
    },
    {
      "inputs": [
        {
          "internalType": "uint256",
          "name": "a",
          "type": "uint256"
        },
        {
          "internalType": "uint256",
          "name": "b",
          "type": "uint256"
        },
        {
          "internalType": "uint256",
          "name": "c",
          "type": "uint256"
        },
        {
          "internalType": "string",
          "name": "_name",
          "type": "string"
        }
      ],
      "name": "addOffice",
      "outputs": [],
      "stateMutability": "nonpayable",
      "type": "function"
    },
    {
      "inputs": [],
      "name": "admin",
      "outputs": [
        {
          "internalType": "address",
          "name": "",
          "type": "address"
        }
      ],
      "stateMutability": "view",
      "type": "function"
    },
    {
      "inputs": [
        {
          "internalType": "uint256",
          "name": "_id",
          "type": "uint256"
        },
        {
          "internalType": "string",
          "name": "_source",
          "type": "string"
        },
        {
          "internalType": "string",
          "name": "_option1",
          "type": "string"
        },
        {
          "internalType": "string",
          "name": "_option2",
          "type": "string"
        },
        {
          "internalType": "string",
          "name": "_option3",
          "type": "string"
        },
        {
          "internalType": "string",
          "name": "_reason",
          "type": "string"
        },
        {
          "internalType": "uint256",
          "name": "_post",
          "type": "uint256"
        }
      ],
      "name": "annualTransfer",
      "outputs": [],
      "stateMutability": "nonpayable",
      "type": "function"
    },
    {
      "inputs": [
        {
          "internalType": "uint256",
          "name": "",
          "type": "uint256"
        }
      ],
      "name": "arr",
      "outputs": [
        {
          "internalType": "uint256",
          "name": "id",
          "type": "uint256"
        },
        {
          "internalType": "string",
          "name": "source",
          "type": "string"
        },
        {
          "internalType": "string",
          "name": "destination",
          "type": "string"
        },
        {
          "internalType": "uint256",
          "name": "timestamp",
          "type": "uint256"
        },
        {
          "internalType": "uint256",
          "name": "post",
          "type": "uint256"
        },
        {
          "internalType": "string",
          "name": "reason",
          "type": "string"
        }
      ],
      "stateMutability": "view",
      "type": "function"
    },
    {
      "inputs": [],
      "name": "createAdmin",
      "outputs": [],
      "stateMutability": "nonpayable",
      "type": "function"
    },
    {
      "inputs": [
        {
          "internalType": "uint256",
          "name": "_id",
          "type": "uint256"
        },
        {
          "internalType": "string",
          "name": "_source",
          "type": "string"
        },
        {
          "internalType": "string",
          "name": "_option",
          "type": "string"
        },
        {
          "internalType": "uint256",
          "name": "_post",
          "type": "uint256"
        }
      ],
      "name": "doRandom",
      "outputs": [],
      "stateMutability": "nonpayable",
      "type": "function"
    },
    {
      "inputs": [],
      "name": "getInfo",
      "outputs": [
        {
          "components": [
            {
              "internalType": "uint256",
              "name": "id",
              "type": "uint256"
            },
            {
              "internalType": "string",
              "name": "source",
              "type": "string"
            },
            {
              "internalType": "string",
              "name": "destination",
              "type": "string"
            },
            {
              "internalType": "uint256",
              "name": "timestamp",
              "type": "uint256"
            },
            {
              "internalType": "uint256",
              "name": "post",
              "type": "uint256"
            },
            {
              "internalType": "string",
              "name": "reason",
              "type": "string"
            }
          ],
          "internalType": "struct transferInfo[]",
          "name": "",
          "type": "tuple[]"
        }
      ],
      "stateMutability": "view",
      "type": "function"
    },
    {
      "inputs": [],
      "name": "getOffices",
      "outputs": [
        {
          "components": [
            {
              "internalType": "uint256",
              "name": "p1",
              "type": "uint256"
            },
            {
              "internalType": "uint256",
              "name": "p2",
              "type": "uint256"
            },
            {
              "internalType": "uint256",
              "name": "p3",
              "type": "uint256"
            },
            {
              "internalType": "string",
              "name": "name",
              "type": "string"
            }
          ],
          "internalType": "struct officeInfo[]",
          "name": "",
          "type": "tuple[]"
        }
      ],
      "stateMutability": "view",
      "type": "function"
    },
    {
      "inputs": [
        {
          "internalType": "uint256",
          "name": "",
          "type": "uint256"
        }
      ],
      "name": "offices",
      "outputs": [
        {
          "internalType": "uint256",
          "name": "p1",
          "type": "uint256"
        },
        {
          "internalType": "uint256",
          "name": "p2",
          "type": "uint256"
        },
        {
          "internalType": "uint256",
          "name": "p3",
          "type": "uint256"
        },
        {
          "internalType": "string",
          "name": "name",
          "type": "string"
        }
      ],
      "stateMutability": "view",
      "type": "function"
    },
    {
      "inputs": [],
      "name": "random",
      "outputs": [
        {
          "internalType": "uint256",
          "name": "",
          "type": "uint256"
        }
      ],
      "stateMutability": "view",
      "type": "function"
    },
    {
      "inputs": [
        {
          "internalType": "string",
          "name": "_source",
          "type": "string"
        },
        {
          "internalType": "string",
          "name": "_option",
          "type": "string"
        },
        {
          "internalType": "uint256",
          "name": "_post",
          "type": "uint256"
        }
      ],
      "name": "updateInfo",
      "outputs": [],
      "stateMutability": "nonpayable",
      "type": "function"
    },
    {
      "inputs": [
        {
          "internalType": "string",
          "name": "_name",
          "type": "string"
        },
        {
          "internalType": "uint256",
          "name": "_post",
          "type": "uint256"
        },
        {
          "internalType": "uint256",
          "name": "number",
          "type": "uint256"
        }
      ],
      "name": "updateVacancies",
      "outputs": [],
      "stateMutability": "nonpayable",
      "type": "function"
    },
    {
      "inputs": [],
      "name": "urgentRequired",
      "outputs": [
        {
          "internalType": "uint256",
          "name": "",
          "type": "uint256"
        }
      ],
      "stateMutability": "view",
      "type": "function"
    }
  ],
  "bytecode": "0x6080604052600060015560405180608001604052806001815260200160028152602001600481526020016040518060400160405280600681526020017f4d756c756e6400000000000000000000000000000000000000000000000000008152508152506004600082015181600001556020820151816001015560408201518160020155606082015181600301908162000099919062001150565b50505060405180608001604052806001815260200160028152602001600281526020016040518060400160405280600881526020017f4368656d62657572000000000000000000000000000000000000000000000000815250815250600860008201518160000155602082015181600101556040820151816002015560608201518160030190816200012c919062001150565b50505060405180608001604052806000815260200160018152602001600481526020016040518060400160405280600981526020017f476861746b6f7061720000000000000000000000000000000000000000000000815250815250600c6000820151816000015560208201518160010155604082015181600201556060820151816003019081620001bf919062001150565b50505060405180608001604052806001815260200160038152602001600181526020016040518060400160405280600581526020017f4b75726c610000000000000000000000000000000000000000000000000000008152508152506010600082015181600001556020820151816001015560408201518160020155606082015181600301908162000252919062001150565b50505060405180608001604052806000815260200160048152602001600281526020016040518060400160405280600581526020017f506172656c00000000000000000000000000000000000000000000000000000081525081525060146000820151816000015560208201518160010155604082015181600201556060820151816003019081620002e5919062001150565b50505060405180608001604052806001815260200160048152602001600181526020016040518060400160405280600581526020017f44616461720000000000000000000000000000000000000000000000000000008152508152506018600082015181600001556020820151816001015560408201518160020155606082015181600301908162000378919062001150565b50505060405180608001604052806001815260200160048152602001600281526020016040518060400160405280600781526020017f427963756c6c6100000000000000000000000000000000000000000000000000815250815250601c60008201518160000155602082015181600101556040820151816002015560608201518160030190816200040b919062001150565b50505060405180608001604052806001815260200160048152602001600481526020016040518060400160405280600781526020017f4d616c6162617200000000000000000000000000000000000000000000000000815250815250602060008201518160000155602082015181600101556040820151816002015560608201518160030190816200049e919062001150565b50505060405180608001604052806002815260200160048152602001600181526020016040518060400160405280600681526020017f42616e64726100000000000000000000000000000000000000000000000000008152508152506024600082015181600001556020820151816001015560408201518160020155606082015181600301908162000531919062001150565b50505060405180608001604052806001815260200160048152602001600281526020016040518060400160405280600581526020017f4d6168696d00000000000000000000000000000000000000000000000000000081525081525060286000820151816000015560208201518160010155604082015181600201556060820151816003019081620005c4919062001150565b50505060405180608001604052806002815260200160048152602001600181526020016040518060400160405280600b81526020017f56696c6c65205061726c65000000000000000000000000000000000000000000815250815250602c600082015181600001556020820151816001015560408201518160020155606082015181600301908162000657919062001150565b50505060405180608001604052806001815260200160048152602001600281526020016040518060400160405280600781526020017f416e64686572690000000000000000000000000000000000000000000000000081525081525060306000820151816000015560208201518160010155604082015181600201556060820151816003019081620006ea919062001150565b50505060405180608001604052806002815260200160048152602001600181526020016040518060400160405280600881526020017f476f7265676f616e000000000000000000000000000000000000000000000000815250815250603460008201518160000155602082015181600101556040820151816002015560608201518160030190816200077d919062001150565b50505060405180608001604052806001815260200160048152602001600381526020016040518060400160405280600881526020017f4b616e6469766c690000000000000000000000000000000000000000000000008152508152506038600082015181600001556020820151816001015560408201518160020155606082015181600301908162000810919062001150565b50505060405180608001604052806001815260200160048152602001600181526020016040518060400160405280600881526020017f426f726976616c69000000000000000000000000000000000000000000000000815250815250603c6000820151816000015560208201518160010155604082015181600201556060820151816003019081620008a3919062001150565b505050348015620008b357600080fd5b50336000806101000a81548173ffffffffffffffffffffffffffffffffffffffff021916908373ffffffffffffffffffffffffffffffffffffffff160217905550604060049080600181540180825580915050600190039060005260206000209060040201600090919091909150600082015481600001556001820154816001015560028201548160020155600382018160030190816200095591906200124f565b50505060406008908060018154018082558091505060019003906000526020600020906004020160009091909190915060008201548160000155600182015481600101556002820154816002015560038201816003019081620009b991906200124f565b5050506040600c90806001815401808255809150506001900390600052602060002090600402016000909190919091506000820154816000015560018201548160010155600282015481600201556003820181600301908162000a1d91906200124f565b5050506040601090806001815401808255809150506001900390600052602060002090600402016000909190919091506000820154816000015560018201548160010155600282015481600201556003820181600301908162000a8191906200124f565b5050506040601490806001815401808255809150506001900390600052602060002090600402016000909190919091506000820154816000015560018201548160010155600282015481600201556003820181600301908162000ae591906200124f565b5050506040601890806001815401808255809150506001900390600052602060002090600402016000909190919091506000820154816000015560018201548160010155600282015481600201556003820181600301908162000b4991906200124f565b5050506040601c90806001815401808255809150506001900390600052602060002090600402016000909190919091506000820154816000015560018201548160010155600282015481600201556003820181600301908162000bad91906200124f565b5050506040602090806001815401808255809150506001900390600052602060002090600402016000909190919091506000820154816000015560018201548160010155600282015481600201556003820181600301908162000c1191906200124f565b5050506040602490806001815401808255809150506001900390600052602060002090600402016000909190919091506000820154816000015560018201548160010155600282015481600201556003820181600301908162000c7591906200124f565b5050506040602890806001815401808255809150506001900390600052602060002090600402016000909190919091506000820154816000015560018201548160010155600282015481600201556003820181600301908162000cd991906200124f565b5050506040602c90806001815401808255809150506001900390600052602060002090600402016000909190919091506000820154816000015560018201548160010155600282015481600201556003820181600301908162000d3d91906200124f565b5050506040603090806001815401808255809150506001900390600052602060002090600402016000909190919091506000820154816000015560018201548160010155600282015481600201556003820181600301908162000da191906200124f565b5050506040603490806001815401808255809150506001900390600052602060002090600402016000909190919091506000820154816000015560018201548160010155600282015481600201556003820181600301908162000e0591906200124f565b5050506040603890806001815401808255809150506001900390600052602060002090600402016000909190919091506000820154816000015560018201548160010155600282015481600201556003820181600301908162000e6991906200124f565b5050506040603c90806001815401808255809150506001900390600052602060002090600402016000909190919091506000820154816000015560018201548160010155600282015481600201556003820181600301908162000ecd91906200124f565b50505062001350565b600081519050919050565b7f4e487b7100000000000000000000000000000000000000000000000000000000600052604160045260246000fd5b7f4e487b7100000000000000000000000000000000000000000000000000000000600052602260045260246000fd5b6000600282049050600182168062000f5857607f821691505b60208210810362000f6e5762000f6d62000f10565b5b50919050565b60008190508160005260206000209050919050565b60006020601f8301049050919050565b600082821b905092915050565b60006008830262000fd87fffffffffffffffffffffffffffffffffffffffffffffffffffffffffffffffff8262000f99565b62000fe4868362000f99565b95508019841693508086168417925050509392505050565b6000819050919050565b6000819050919050565b6000620010316200102b620010258462000ffc565b62001006565b62000ffc565b9050919050565b6000819050919050565b6200104d8362001010565b620010656200105c8262001038565b84845462000fa6565b825550505050565b600090565b6200107c6200106d565b6200108981848462001042565b505050565b5b81811015620010b157620010a560008262001072565b6001810190506200108f565b5050565b601f8211156200110057620010ca8162000f74565b620010d58462000f89565b81016020851015620010e5578190505b620010fd620010f48562000f89565b8301826200108e565b50505b505050565b600082821c905092915050565b6000620011256000198460080262001105565b1980831691505092915050565b600062001140838362001112565b9150826002028217905092915050565b6200115b8262000ed6565b67ffffffffffffffff81111562001177576200117662000ee1565b5b62001183825462000f3f565b62001190828285620010b5565b600060209050601f831160018114620011c85760008415620011b3578287015190505b620011bf858262001132565b8655506200122f565b601f198416620011d88662000f74565b60005b828110156200120257848901518255600182019150602085019450602081019050620011db565b868310156200122257848901516200121e601f89168262001112565b8355505b6001600288020188555050505b505050505050565b600081549050620012488162000f3f565b9050919050565b8181036200125f5750506200134e565b6200126a8262001237565b67ffffffffffffffff81111562001286576200128562000ee1565b5b62001292825462000f3f565b6200129f828285620010b5565b6000601f831160018114620012d35760008415620012be578287015490505b620012ca858262001132565b86555062001347565b601f198416620012e38762000f74565b9650620012f08662000f74565b60005b828110156200131a57848901548255600182019150600185019450602081019050620012f3565b868310156200133a578489015462001336601f89168262001112565b8355505b6001600288020188555050505b5050505050505b565b614eb580620013606000396000f3fe608060405234801561001057600080fd5b50600436106100f55760003560e01c80639e718f3a11610097578063e92980c511610066578063e92980c51461027a578063ec50d53e14610284578063ee3474e3146102a0578063f851a440146102bc576100f5565b80639e718f3a146101f4578063a9b74fc114610212578063beface0014610242578063c613bf1a1461025e576100f5565b806360f1267c116100d357806360f1267c14610152578063696c998b1461018557806370ad393b146101a357806371e5ee5f146101bf576100f5565b80630843023d146100fa5780635a9b0b89146101165780635ec01e4d14610134575b600080fd5b610114600480360381019061010f9190613d00565b6102da565b005b61011e610361565b60405161012b9190613f6a565b60405180910390f35b61013c610594565b6040516101499190613f9b565b60405180910390f35b61016c60048036038101906101679190613fb6565b6105ce565b60405161017c949392919061402d565b60405180910390f35b61018d610696565b60405161019a9190613f9b565b60405180910390f35b6101bd60048036038101906101b89190614079565b61069c565b005b6101d960048036038101906101d49190613fb6565b6119d0565b6040516101eb96959493929190614118565b60405180910390f35b6101fc611bb4565b60405161020991906142b3565b60405180910390f35b61022c600480360381019061022791906142d5565b611cc3565b60405161023991906143db565b60405180910390f35b61025c600480360381019061025791906143f6565b61225d565b005b61027860048036038101906102739190614524565b612e81565b005b6102826133fe565b005b61029e600480360381019061029991906145af565b613481565b005b6102ba60048036038101906102b5919061467e565b61390c565b005b6102c4613b4c565b6040516102d1919061472e565b60405180910390f35b60408051806080016040528086815260200185815260200184815260200183815250908060018154018082558091505060019003906000526020600020906004020160009091909190915060008201518160000155602082015181600101556040820151816002015560608201518160030190816103589190614955565b50505050505050565b60606002805480602002602001604051908101604052809291908181526020016000905b8282101561058b57838290600052602060002090600602016040518060c0016040529081600082015481526020016001820180546103c290614778565b80601f01602080910402602001604051908101604052809291908181526020018280546103ee90614778565b801561043b5780601f106104105761010080835404028352916020019161043b565b820191906000526020600020905b81548152906001019060200180831161041e57829003601f168201915b5050505050815260200160028201805461045490614778565b80601f016020809104026020016040519081016040528092919081815260200182805461048090614778565b80156104cd5780601f106104a2576101008083540402835291602001916104cd565b820191906000526020600020905b8154815290600101906020018083116104b057829003601f168201915b5050505050815260200160038201548152602001600482015481526020016005820180546104fa90614778565b80601f016020809104026020016040519081016040528092919081815260200182805461052690614778565b80156105735780601f1061054857610100808354040283529160200191610573565b820191906000526020600020905b81548152906001019060200180831161055657829003601f168201915b50505050508152505081526020019060010190610385565b50505050905090565b600044426002805490506040516020016105b093929190614a48565b6040516020818303038152906040528051906020012060001c905090565b604081815481106105de57600080fd5b906000526020600020906004020160009150905080600001549080600101549080600201549080600301805461061390614778565b80601f016020809104026020016040519081016040528092919081815260200182805461063f90614778565b801561068c5780601f106106615761010080835404028352916020019161068c565b820191906000526020600020905b81548152906001019060200180831161066f57829003601f168201915b5050505050905084565b60015481565b6000805b60408054905081101561170a57836040516020016106be9190614ac1565b60405160208183030381529060405280519060200120604082815481106106e8576106e7614ad8565b5b90600052602060002090600402016003016040516020016107099190614b8a565b60405160208183030381529060405280519060200120036116f657846040516020016107359190614ac1565b604051602081830303815290604052805190602001206040828154811061075f5761075e614ad8565b5b90600052602060002090600402016003016040516020016107809190614b8a565b6040516020818303038152906040528051906020012003156116f757600060016040805490506107b09190614bd0565b82036107be578190506107ce565b6001826107cb9190614c04565b90505b60008083036107f05760016040805490506107e99190614bd0565b9050610800565b6001836107fd9190614bd0565b90505b6000600190505b83831415806108135750805b156116ee578015610f5257600186148015610853575060006040848154811061083f5761083e614ad8565b5b906000526020600020906004020160000154115b15610a8557600061097e8a6040868154811061087257610871614ad8565b5b9060005260206000209060040201600301805461088e90614778565b80601f01602080910402602001604051908101604052809291908181526020018280546108ba90614778565b80156109075780601f106108dc57610100808354040283529160200191610907565b820191906000526020600020905b8154815290600101906020018083116108ea57829003601f168201915b50505050506040518060400160405280600181526020017f61000000000000000000000000000000000000000000000000000000000000008152506040518060400160405280600181526020017f62000000000000000000000000000000000000000000000000000000000000008152508d611cc3565b90508015610a7f57610a758a8a6040878154811061099f5761099e614ad8565b5b906000526020600020906004020160030180546109bb90614778565b80601f01602080910402602001604051908101604052809291908181526020018280546109e790614778565b8015610a345780601f10610a0957610100808354040283529160200191610a34565b820191906000526020600020905b815481529060010190602001808311610a1757829003601f168201915b50505050506040518060400160405280600f81526020017f416e6e75616c205472616e7366657200000000000000000000000000000000008152508b613481565b60019550506116ee565b50610f51565b600286148015610aba5750600060408481548110610aa657610aa5614ad8565b5b906000526020600020906004020160010154115b15610cec576000610be58a60408681548110610ad957610ad8614ad8565b5b90600052602060002090600402016003018054610af590614778565b80601f0160208091040260200160405190810160405280929190818152602001828054610b2190614778565b8015610b6e5780601f10610b4357610100808354040283529160200191610b6e565b820191906000526020600020905b815481529060010190602001808311610b5157829003601f168201915b50505050506040518060400160405280600181526020017f61000000000000000000000000000000000000000000000000000000000000008152506040518060400160405280600181526020017f62000000000000000000000000000000000000000000000000000000000000008152508d611cc3565b90508015610ce657610cdc8a8a60408781548110610c0657610c05614ad8565b5b90600052602060002090600402016003018054610c2290614778565b80601f0160208091040260200160405190810160405280929190818152602001828054610c4e90614778565b8015610c9b5780601f10610c7057610100808354040283529160200191610c9b565b820191906000526020600020905b815481529060010190602001808311610c7e57829003601f168201915b50505050506040518060400160405280600f81526020017f416e6e75616c205472616e7366657200000000000000000000000000000000008152508b613481565b60019550506116ee565b50610f50565b600386148015610d215750600060408481548110610d0d57610d0c614ad8565b5b906000526020600020906004020160020154115b15610f4f576000610e4c8a60408681548110610d4057610d3f614ad8565b5b90600052602060002090600402016003018054610d5c90614778565b80601f0160208091040260200160405190810160405280929190818152602001828054610d8890614778565b8015610dd55780601f10610daa57610100808354040283529160200191610dd5565b820191906000526020600020905b815481529060010190602001808311610db857829003601f168201915b50505050506040518060400160405280600181526020017f61000000000000000000000000000000000000000000000000000000000000008152506040518060400160405280600181526020017f62000000000000000000000000000000000000000000000000000000000000008152508d611cc3565b90508015610f4d57610f438a8a60408781548110610e6d57610e6c614ad8565b5b90600052602060002090600402016003018054610e8990614778565b80601f0160208091040260200160405190810160405280929190818152602001828054610eb590614778565b8015610f025780601f10610ed757610100808354040283529160200191610f02565b820191906000526020600020905b815481529060010190602001808311610ee557829003601f168201915b50505050506040518060400160405280600f81526020017f416e6e75616c205472616e7366657200000000000000000000000000000000008152508b613481565b60019550506116ee565b505b5b5b5b600186148015610f875750600060408381548110610f7357610f72614ad8565b5b906000526020600020906004020160000154115b156111b95760006110b28a60408581548110610fa657610fa5614ad8565b5b90600052602060002090600402016003018054610fc290614778565b80601f0160208091040260200160405190810160405280929190818152602001828054610fee90614778565b801561103b5780601f106110105761010080835404028352916020019161103b565b820191906000526020600020905b81548152906001019060200180831161101e57829003601f168201915b50505050506040518060400160405280600181526020017f61000000000000000000000000000000000000000000000000000000000000008152506040518060400160405280600181526020017f62000000000000000000000000000000000000000000000000000000000000008152508d611cc3565b905080156111b3576111a98a8a604086815481106110d3576110d2614ad8565b5b906000526020600020906004020160030180546110ef90614778565b80601f016020809104026020016040519081016040528092919081815260200182805461111b90614778565b80156111685780601f1061113d57610100808354040283529160200191611168565b820191906000526020600020905b81548152906001019060200180831161114b57829003601f168201915b50505050506040518060400160405280600f81526020017f416e6e75616c205472616e7366657200000000000000000000000000000000008152508b613481565b60019550506116ee565b50611685565b6002861480156111ee57506000604083815481106111da576111d9614ad8565b5b906000526020600020906004020160010154115b156114205760006113198a6040858154811061120d5761120c614ad8565b5b9060005260206000209060040201600301805461122990614778565b80601f016020809104026020016040519081016040528092919081815260200182805461125590614778565b80156112a25780601f10611277576101008083540402835291602001916112a2565b820191906000526020600020905b81548152906001019060200180831161128557829003601f168201915b50505050506040518060400160405280600181526020017f61000000000000000000000000000000000000000000000000000000000000008152506040518060400160405280600181526020017f62000000000000000000000000000000000000000000000000000000000000008152508d611cc3565b9050801561141a576114108a8a6040868154811061133a57611339614ad8565b5b9060005260206000209060040201600301805461135690614778565b80601f016020809104026020016040519081016040528092919081815260200182805461138290614778565b80156113cf5780601f106113a4576101008083540402835291602001916113cf565b820191906000526020600020905b8154815290600101906020018083116113b257829003601f168201915b50505050506040518060400160405280600f81526020017f416e6e75616c205472616e7366657200000000000000000000000000000000008152508b613481565b60019550506116ee565b50611684565b600386148015611455575060006040838154811061144157611440614ad8565b5b906000526020600020906004020160020154115b156116835760006115808a6040858154811061147457611473614ad8565b5b9060005260206000209060040201600301805461149090614778565b80601f01602080910402602001604051908101604052809291908181526020018280546114bc90614778565b80156115095780601f106114de57610100808354040283529160200191611509565b820191906000526020600020905b8154815290600101906020018083116114ec57829003601f168201915b50505050506040518060400160405280600181526020017f61000000000000000000000000000000000000000000000000000000000000008152506040518060400160405280600181526020017f62000000000000000000000000000000000000000000000000000000000000008152508d611cc3565b90508015611681576116778a8a604086815481106115a1576115a0614ad8565b5b906000526020600020906004020160030180546115bd90614778565b80601f01602080910402602001604051908101604052809291908181526020018280546115e990614778565b80156116365780601f1061160b57610100808354040283529160200191611636565b820191906000526020600020905b81548152906001019060200180831161161957829003601f168201915b50505050506040518060400160405280600f81526020017f416e6e75616c205472616e7366657200000000000000000000000000000000008152508b613481565b60019550506116ee565b505b5b5b60016040805490506116979190614bd0565b83036116a657600092506116b5565b82806116b190614c38565b9350505b600082036116d65760016040805490506116cf9190614bd0565b91506116e5565b81806116e190614c80565b9250505b60009050610807565b50505061170a565b5b808061170290614c38565b9150506106a0565b5060005b60408054905081101561198857600183148015611750575060006040828154811061173c5761173b614ad8565b5b906000526020600020906004020160000154115b1561197557600061187b876040848154811061176f5761176e614ad8565b5b9060005260206000209060040201600301805461178b90614778565b80601f01602080910402602001604051908101604052809291908181526020018280546117b790614778565b80156118045780601f106117d957610100808354040283529160200191611804565b820191906000526020600020905b8154815290600101906020018083116117e757829003601f168201915b50505050506040518060400160405280600181526020017f61000000000000000000000000000000000000000000000000000000000000008152506040518060400160405280600181526020017f62000000000000000000000000000000000000000000000000000000000000008152508a611cc3565b905080156119735761197287876040858154811061189c5761189b614ad8565b5b906000526020600020906004020160030180546118b890614778565b80601f01602080910402602001604051908101604052809291908181526020018280546118e490614778565b80156119315780601f1061190657610100808354040283529160200191611931565b820191906000526020600020905b81548152906001019060200180831161191457829003601f168201915b50505050506040518060400160405280600f81526020017f416e6e75616c205472616e73666572000000000000000000000000000000000081525088613481565b5b505b808061198090614c38565b91505061170e565b50806119c9576040517f08c379a00000000000000000000000000000000000000000000000000000000081526004016119c090614cf5565b60405180910390fd5b5050505050565b600281815481106119e057600080fd5b9060005260206000209060060201600091509050806000015490806001018054611a0990614778565b80601f0160208091040260200160405190810160405280929190818152602001828054611a3590614778565b8015611a825780601f10611a5757610100808354040283529160200191611a82565b820191906000526020600020905b815481529060010190602001808311611a6557829003601f168201915b505050505090806002018054611a9790614778565b80601f0160208091040260200160405190810160405280929190818152602001828054611ac390614778565b8015611b105780601f10611ae557610100808354040283529160200191611b10565b820191906000526020600020905b815481529060010190602001808311611af357829003601f168201915b505050505090806003015490806004015490806005018054611b3190614778565b80601f0160208091040260200160405190810160405280929190818152602001828054611b5d90614778565b8015611baa5780601f10611b7f57610100808354040283529160200191611baa565b820191906000526020600020905b815481529060010190602001808311611b8d57829003601f168201915b5050505050905086565b60606040805480602002602001604051908101604052809291908181526020016000905b82821015611cba5783829060005260206000209060040201604051806080016040529081600082015481526020016001820154815260200160028201548152602001600382018054611c2990614778565b80601f0160208091040260200160405190810160405280929190818152602001828054611c5590614778565b8015611ca25780601f10611c7757610100808354040283529160200191611ca2565b820191906000526020600020905b815481529060010190602001808311611c8557829003601f168201915b50505050508152505081526020019060010190611bd8565b50505050905090565b60008085604051602001611cd79190614ac1565b6040516020818303038152906040528051906020012083604051602001611cfe9190614ac1565b6040516020818303038152906040528051906020012003611d26576000905080915050612254565b84604051602001611d379190614ac1565b6040516020818303038152906040528051906020012083604051602001611d5e9190614ac1565b6040516020818303038152906040528051906020012003611d86576000905080915050612254565b83604051602001611d979190614ac1565b6040516020818303038152906040528051906020012083604051602001611dbe9190614ac1565b6040516020818303038152906040528051906020012003611de6576000905080915050612254565b60005b60028054905081101561224d578760028281548110611e0b57611e0a614ad8565b5b906000526020600020906006020160000154148015611e99575086604051602001611e369190614ac1565b6040516020818303038152906040528051906020012060028281548110611e6057611e5f614ad8565b5b9060005260206000209060060201600201604051602001611e819190614b8a565b60405160208183030381529060405280519060200120145b15611eac57600091508192505050612254565b8760028281548110611ec157611ec0614ad8565b5b906000526020600020906006020160000154148015611f4f575085604051602001611eec9190614ac1565b6040516020818303038152906040528051906020012060028281548110611f1657611f15614ad8565b5b9060005260206000209060060201600201604051602001611f379190614b8a565b60405160208183030381529060405280519060200120145b15611f6257600091508192505050612254565b8760028281548110611f7757611f76614ad8565b5b906000526020600020906006020160000154148015612005575084604051602001611fa29190614ac1565b6040516020818303038152906040528051906020012060028281548110611fcc57611fcb614ad8565b5b9060005260206000209060060201600201604051602001611fed9190614b8a565b60405160208183030381529060405280519060200120145b1561201857600091508192505050612254565b876002828154811061202d5761202c614ad8565b5b9060005260206000209060060201600001541480156120bb5750866040516020016120589190614ac1565b604051602081830303815290604052805190602001206002828154811061208257612081614ad8565b5b90600052602060002090600602016001016040516020016120a39190614b8a565b60405160208183030381529060405280519060200120145b156120ce57600091508192505050612254565b87600282815481106120e3576120e2614ad8565b5b90600052602060002090600602016000015414801561217157508560405160200161210e9190614ac1565b604051602081830303815290604052805190602001206002828154811061213857612137614ad8565b5b90600052602060002090600602016001016040516020016121599190614b8a565b60405160208183030381529060405280519060200120145b1561218457600091508192505050612254565b876002828154811061219957612198614ad8565b5b9060005260206000209060060201600001541480156122275750846040516020016121c49190614ac1565b60405160208183030381529060405280519060200120600282815481106121ee576121ed614ad8565b5b906000526020600020906006020160010160405160200161220f9190614b8a565b60405160208183030381529060405280519060200120145b1561223a57600091508192505050612254565b808061224590614c38565b915050611de9565b5060019150505b95945050505050565b60008054906101000a900473ffffffffffffffffffffffffffffffffffffffff1673ffffffffffffffffffffffffffffffffffffffff163373ffffffffffffffffffffffffffffffffffffffff16146122eb576040517f08c379a00000000000000000000000000000000000000000000000000000000081526004016122e290614d61565b60405180910390fd5b60006122fa888787878b611cc3565b90508061233c576040517f08c379a000000000000000000000000000000000000000000000000000000000815260040161233390614dcd565b60405180910390fd5b60005b6040805490508110156126f5578660405160200161235d9190614ac1565b604051602081830303815290604052805190602001206040828154811061238757612386614ad8565b5b90600052602060002090600402016003016040516020016123a89190614b8a565b60405160208183030381529060405280519060200120036126e2576000604082815481106123d9576123d8614ad8565b5b9060005260206000209060040201600001541180156123f85750600183145b156124cd5760026040518060c001604052808b81526020018a81526020018981526020014281526020018581526020018681525090806001815401808255809150506001900390600052602060002090600602016000909190919091506000820151816000015560208201518160010190816124749190614955565b50604082015181600201908161248a9190614955565b50606082015181600301556080820151816004015560a08201518160050190816124b49190614955565b5050506124c2888885612e81565b600191505050612e78565b6000604082815481106124e3576124e2614ad8565b5b9060005260206000209060040201600101541180156125025750600283145b156125d75760026040518060c001604052808b81526020018a815260200189815260200142815260200185815260200186815250908060018154018082558091505060019003906000526020600020906006020160009091909190915060008201518160000155602082015181600101908161257e9190614955565b5060408201518160020190816125949190614955565b50606082015181600301556080820151816004015560a08201518160050190816125be9190614955565b5050506125cc888885612e81565b600191505050612e78565b6000604082815481106125ed576125ec614ad8565b5b90600052602060002090600402016002015411801561260c5750600383145b156126e15760026040518060c001604052808b81526020018a81526020018981526020014281526020018581526020018681525090806001815401808255809150506001900390600052602060002090600602016000909190919091506000820151816000015560208201518160010190816126889190614955565b50604082015181600201908161269e9190614955565b50606082015181600301556080820151816004015560a08201518160050190816126c89190614955565b5050506126d6888885612e81565b600191505050612e78565b5b80806126ed90614c38565b91505061233f565b5060005b604080549050811015612aaf57856040516020016127179190614ac1565b604051602081830303815290604052805190602001206040828154811061274157612740614ad8565b5b90600052602060002090600402016003016040516020016127629190614b8a565b6040516020818303038152906040528051906020012003612a9c5760006040828154811061279357612792614ad8565b5b9060005260206000209060040201600001541180156127b25750600183145b156128875760026040518060c001604052808b81526020018a815260200188815260200142815260200185815260200186815250908060018154018082558091505060019003906000526020600020906006020160009091909190915060008201518160000155602082015181600101908161282e9190614955565b5060408201518160020190816128449190614955565b50606082015181600301556080820151816004015560a082015181600501908161286e9190614955565b50505061287c888785612e81565b600191505050612e78565b60006040828154811061289d5761289c614ad8565b5b9060005260206000209060040201600101541180156128bc5750600283145b156129915760026040518060c001604052808b81526020018a81526020018881526020014281526020018581526020018681525090806001815401808255809150506001900390600052602060002090600602016000909190919091506000820151816000015560208201518160010190816129389190614955565b50604082015181600201908161294e9190614955565b50606082015181600301556080820151816004015560a08201518160050190816129789190614955565b505050612986888785612e81565b600191505050612e78565b6000604082815481106129a7576129a6614ad8565b5b9060005260206000209060040201600201541180156129c65750600383145b15612a9b5760026040518060c001604052808b81526020018a8152602001888152602001428152602001858152602001868152509080600181540180825580915050600190039060005260206000209060060201600090919091909150600082015181600001556020820151816001019081612a429190614955565b506040820151816002019081612a589190614955565b50606082015181600301556080820151816004015560a0820151816005019081612a829190614955565b505050612a90888785612e81565b600191505050612e78565b5b8080612aa790614c38565b9150506126f9565b5060005b604080549050811015612e695784604051602001612ad19190614ac1565b6040516020818303038152906040528051906020012060408281548110612afb57612afa614ad8565b5b9060005260206000209060040201600301604051602001612b1c9190614b8a565b6040516020818303038152906040528051906020012003612e5657600060408281548110612b4d57612b4c614ad8565b5b906000526020600020906004020160000154118015612b6c5750600183145b15612c415760026040518060c001604052808b81526020018a8152602001878152602001428152602001858152602001868152509080600181540180825580915050600190039060005260206000209060060201600090919091909150600082015181600001556020820151816001019081612be89190614955565b506040820151816002019081612bfe9190614955565b50606082015181600301556080820151816004015560a0820151816005019081612c289190614955565b505050612c36888685612e81565b600191505050612e78565b600060408281548110612c5757612c56614ad8565b5b906000526020600020906004020160010154118015612c765750600283145b15612d4b5760026040518060c001604052808b81526020018a8152602001878152602001428152602001858152602001868152509080600181540180825580915050600190039060005260206000209060060201600090919091909150600082015181600001556020820151816001019081612cf29190614955565b506040820151816002019081612d089190614955565b50606082015181600301556080820151816004015560a0820151816005019081612d329190614955565b505050612d40888685612e81565b600191505050612e78565b600060408281548110612d6157612d60614ad8565b5b906000526020600020906004020160020154118015612d805750600383145b15612e555760026040518060c001604052808b81526020018a8152602001878152602001428152602001858152602001868152509080600181540180825580915050600190039060005260206000209060060201600090919091909150600082015181600001556020820151816001019081612dfc9190614955565b506040820151816002019081612e129190614955565b50606082015181600301556080820151816004015560a0820151816005019081612e3c9190614955565b505050612e4a888685612e81565b600191505050612e78565b5b8080612e6190614c38565b915050612ab3565b50612e768888868561069c565b505b50505050505050565b60005b6040805490508110156133f85782604051602001612ea29190614ac1565b6040516020818303038152906040528051906020012060408281548110612ecc57612ecb614ad8565b5b9060005260206000209060040201600301604051602001612eed9190614b8a565b60405160208183030381529060405280519060200120148015612f105750600182145b15612f7557600160408281548110612f2b57612f2a614ad8565b5b906000526020600020906004020160000154612f479190614bd0565b60408281548110612f5b57612f5a614ad8565b5b90600052602060002090600402016000018190555061313b565b82604051602001612f869190614ac1565b6040516020818303038152906040528051906020012060408281548110612fb057612faf614ad8565b5b9060005260206000209060040201600301604051602001612fd19190614b8a565b60405160208183030381529060405280519060200120148015612ff45750600282145b156130595760016040828154811061300f5761300e614ad8565b5b90600052602060002090600402016001015461302b9190614bd0565b6040828154811061303f5761303e614ad8565b5b90600052602060002090600402016001018190555061313a565b8260405160200161306a9190614ac1565b604051602081830303815290604052805190602001206040828154811061309457613093614ad8565b5b90600052602060002090600402016003016040516020016130b59190614b8a565b604051602081830303815290604052805190602001201480156130d85750600382145b15613139576001604082815481106130f3576130f2614ad8565b5b90600052602060002090600402016002015461310f9190614bd0565b6040828154811061312357613122614ad8565b5b9060005260206000209060040201600201819055505b5b5b8360405160200161314c9190614ac1565b604051602081830303815290604052805190602001206040828154811061317657613175614ad8565b5b90600052602060002090600402016003016040516020016131979190614b8a565b604051602081830303815290604052805190602001201480156131ba5750600182145b1561321f576001604082815481106131d5576131d4614ad8565b5b9060005260206000209060040201600001546131f19190614c04565b6040828154811061320557613204614ad8565b5b9060005260206000209060040201600001819055506133e5565b836040516020016132309190614ac1565b604051602081830303815290604052805190602001206040828154811061325a57613259614ad8565b5b906000526020600020906004020160030160405160200161327b9190614b8a565b6040516020818303038152906040528051906020012014801561329e5750600282145b15613303576001604082815481106132b9576132b8614ad8565b5b9060005260206000209060040201600101546132d59190614c04565b604082815481106132e9576132e8614ad8565b5b9060005260206000209060040201600101819055506133e4565b836040516020016133149190614ac1565b604051602081830303815290604052805190602001206040828154811061333e5761333d614ad8565b5b906000526020600020906004020160030160405160200161335f9190614b8a565b604051602081830303815290604052805190602001201480156133825750600382145b156133e35760016040828154811061339d5761339c614ad8565b5b9060005260206000209060040201600201546133b99190614c04565b604082815481106133cd576133cc614ad8565b5b9060005260206000209060040201600201819055505b5b5b80806133f090614c38565b915050612e84565b50505050565b33600360003373ffffffffffffffffffffffffffffffffffffffff1673ffffffffffffffffffffffffffffffffffffffff16815260200190815260200160002060000160006101000a81548173ffffffffffffffffffffffffffffffffffffffff021916908373ffffffffffffffffffffffffffffffffffffffff160217905550565b60008054906101000a900473ffffffffffffffffffffffffffffffffffffffff1673ffffffffffffffffffffffffffffffffffffffff163373ffffffffffffffffffffffffffffffffffffffff161461350f576040517f08c379a000000000000000000000000000000000000000000000000000000000815260040161350690614d61565b60405180910390fd5b6000805b6040805490508110156138c357846040516020016135319190614ac1565b604051602081830303815290604052805190602001206040828154811061355b5761355a614ad8565b5b906000526020600020906004020160030160405160200161357c9190614b8a565b60405160208183030381529060405280519060200120036138b0576000604082815481106135ad576135ac614ad8565b5b9060005260206000209060040201600001541180156135cc5750600183145b1561369f5760026040518060c001604052808981526020018881526020018781526020014281526020018581526020018681525090806001815401808255809150506001900390600052602060002090600602016000909190919091506000820151816000015560208201518160010190816136489190614955565b50604082015181600201908161365e9190614955565b50606082015181600301556080820151816004015560a08201518160050190816136889190614955565b5050506001915061369a868685612e81565b6138c3565b6000604082815481106136b5576136b4614ad8565b5b9060005260206000209060040201600101541180156136d45750600283145b156137a75760026040518060c001604052808981526020018881526020018781526020014281526020018581526020018681525090806001815401808255809150506001900390600052602060002090600602016000909190919091506000820151816000015560208201518160010190816137509190614955565b5060408201518160020190816137669190614955565b50606082015181600301556080820151816004015560a08201518160050190816137909190614955565b505050600191506137a2868685612e81565b6138c3565b6000604082815481106137bd576137bc614ad8565b5b9060005260206000209060040201600201541180156137dc5750600383145b156138af5760026040518060c001604052808981526020018881526020018781526020014281526020018581526020018681525090806001815401808255809150506001900390600052602060002090600602016000909190919091506000820151816000015560208201518160010190816138589190614955565b50604082015181600201908161386e9190614955565b50606082015181600301556080820151816004015560a08201518160050190816138989190614955565b505050600191506138aa868685612e81565b6138c3565b5b80806138bb90614c38565b915050613513565b5080613904576040517f08c379a00000000000000000000000000000000000000000000000000000000081526004016138fb90614e5f565b60405180910390fd5b505050505050565b60005b604080549050811015613b46578360405160200161392d9190614ac1565b604051602081830303815290604052805190602001206040828154811061395757613956614ad8565b5b90600052602060002090600402016003016040516020016139789190614b8a565b6040516020818303038152906040528051906020012014801561399b5750600183145b156139cf5781604082815481106139b5576139b4614ad8565b5b906000526020600020906004020160000181905550613b33565b836040516020016139e09190614ac1565b6040516020818303038152906040528051906020012060408281548110613a0a57613a09614ad8565b5b9060005260206000209060040201600301604051602001613a2b9190614b8a565b60405160208183030381529060405280519060200120148015613a4e5750600283145b15613a82578160408281548110613a6857613a67614ad8565b5b906000526020600020906004020160010181905550613b32565b83604051602001613a939190614ac1565b6040516020818303038152906040528051906020012060408281548110613abd57613abc614ad8565b5b9060005260206000209060040201600301604051602001613ade9190614b8a565b60405160208183030381529060405280519060200120148015613b015750600383145b15613b31578160408281548110613b1b57613b1a614ad8565b5b9060005260206000209060040201600201819055505b5b5b8080613b3e90614c38565b91505061390f565b50505050565b60008054906101000a900473ffffffffffffffffffffffffffffffffffffffff1681565b6000604051905090565b600080fd5b600080fd5b6000819050919050565b613b9781613b84565b8114613ba257600080fd5b50565b600081359050613bb481613b8e565b92915050565b600080fd5b600080fd5b6000601f19601f8301169050919050565b7f4e487b7100000000000000000000000000000000000000000000000000000000600052604160045260246000fd5b613c0d82613bc4565b810181811067ffffffffffffffff82111715613c2c57613c2b613bd5565b5b80604052505050565b6000613c3f613b70565b9050613c4b8282613c04565b919050565b600067ffffffffffffffff821115613c6b57613c6a613bd5565b5b613c7482613bc4565b9050602081019050919050565b82818337600083830152505050565b6000613ca3613c9e84613c50565b613c35565b905082815260208101848484011115613cbf57613cbe613bbf565b5b613cca848285613c81565b509392505050565b600082601f830112613ce757613ce6613bba565b5b8135613cf7848260208601613c90565b91505092915050565b60008060008060808587031215613d1a57613d19613b7a565b5b6000613d2887828801613ba5565b9450506020613d3987828801613ba5565b9350506040613d4a87828801613ba5565b925050606085013567ffffffffffffffff811115613d6b57613d6a613b7f565b5b613d7787828801613cd2565b91505092959194509250565b600081519050919050565b600082825260208201905092915050565b6000819050602082019050919050565b613db881613b84565b82525050565b600081519050919050565b600082825260208201905092915050565b60005b83811015613df8578082015181840152602081019050613ddd565b60008484015250505050565b6000613e0f82613dbe565b613e198185613dc9565b9350613e29818560208601613dda565b613e3281613bc4565b840191505092915050565b600060c083016000830151613e556000860182613daf565b5060208301518482036020860152613e6d8282613e04565b91505060408301518482036040860152613e878282613e04565b9150506060830151613e9c6060860182613daf565b506080830151613eaf6080860182613daf565b5060a083015184820360a0860152613ec78282613e04565b9150508091505092915050565b6000613ee08383613e3d565b905092915050565b6000602082019050919050565b6000613f0082613d83565b613f0a8185613d8e565b935083602082028501613f1c85613d9f565b8060005b85811015613f585784840389528151613f398582613ed4565b9450613f4483613ee8565b925060208a01995050600181019050613f20565b50829750879550505050505092915050565b60006020820190508181036000830152613f848184613ef5565b905092915050565b613f9581613b84565b82525050565b6000602082019050613fb06000830184613f8c565b92915050565b600060208284031215613fcc57613fcb613b7a565b5b6000613fda84828501613ba5565b91505092915050565b600082825260208201905092915050565b6000613fff82613dbe565b6140098185613fe3565b9350614019818560208601613dda565b61402281613bc4565b840191505092915050565b60006080820190506140426000830187613f8c565b61404f6020830186613f8c565b61405c6040830185613f8c565b818103606083015261406e8184613ff4565b905095945050505050565b6000806000806080858703121561409357614092613b7a565b5b60006140a187828801613ba5565b945050602085013567ffffffffffffffff8111156140c2576140c1613b7f565b5b6140ce87828801613cd2565b935050604085013567ffffffffffffffff8111156140ef576140ee613b7f565b5b6140fb87828801613cd2565b925050606061410c87828801613ba5565b91505092959194509250565b600060c08201905061412d6000830189613f8c565b818103602083015261413f8188613ff4565b905081810360408301526141538187613ff4565b90506141626060830186613f8c565b61416f6080830185613f8c565b81810360a08301526141818184613ff4565b9050979650505050505050565b600081519050919050565b600082825260208201905092915050565b6000819050602082019050919050565b60006080830160008301516141d26000860182613daf565b5060208301516141e56020860182613daf565b5060408301516141f86040860182613daf565b50606083015184820360608601526142108282613e04565b9150508091505092915050565b600061422983836141ba565b905092915050565b6000602082019050919050565b60006142498261418e565b6142538185614199565b935083602082028501614265856141aa565b8060005b858110156142a15784840389528151614282858261421d565b945061428d83614231565b925060208a01995050600181019050614269565b50829750879550505050505092915050565b600060208201905081810360008301526142cd818461423e565b905092915050565b600080600080600060a086880312156142f1576142f0613b7a565b5b60006142ff88828901613ba5565b955050602086013567ffffffffffffffff8111156143205761431f613b7f565b5b61432c88828901613cd2565b945050604086013567ffffffffffffffff81111561434d5761434c613b7f565b5b61435988828901613cd2565b935050606086013567ffffffffffffffff81111561437a57614379613b7f565b5b61438688828901613cd2565b925050608086013567ffffffffffffffff8111156143a7576143a6613b7f565b5b6143b388828901613cd2565b9150509295509295909350565b60008115159050919050565b6143d5816143c0565b82525050565b60006020820190506143f060008301846143cc565b92915050565b600080600080600080600060e0888a03121561441557614414613b7a565b5b60006144238a828b01613ba5565b975050602088013567ffffffffffffffff81111561444457614443613b7f565b5b6144508a828b01613cd2565b965050604088013567ffffffffffffffff81111561447157614470613b7f565b5b61447d8a828b01613cd2565b955050606088013567ffffffffffffffff81111561449e5761449d613b7f565b5b6144aa8a828b01613cd2565b945050608088013567ffffffffffffffff8111156144cb576144ca613b7f565b5b6144d78a828b01613cd2565b93505060a088013567ffffffffffffffff8111156144f8576144f7613b7f565b5b6145048a828b01613cd2565b92505060c06145158a828b01613ba5565b91505092959891949750929550565b60008060006060848603121561453d5761453c613b7a565b5b600084013567ffffffffffffffff81111561455b5761455a613b7f565b5b61456786828701613cd2565b935050602084013567ffffffffffffffff81111561458857614587613b7f565b5b61459486828701613cd2565b92505060406145a586828701613ba5565b9150509250925092565b600080600080600060a086880312156145cb576145ca613b7a565b5b60006145d988828901613ba5565b955050602086013567ffffffffffffffff8111156145fa576145f9613b7f565b5b61460688828901613cd2565b945050604086013567ffffffffffffffff81111561462757614626613b7f565b5b61463388828901613cd2565b935050606086013567ffffffffffffffff81111561465457614653613b7f565b5b61466088828901613cd2565b925050608061467188828901613ba5565b9150509295509295909350565b60008060006060848603121561469757614696613b7a565b5b600084013567ffffffffffffffff8111156146b5576146b4613b7f565b5b6146c186828701613cd2565b93505060206146d286828701613ba5565b92505060406146e386828701613ba5565b9150509250925092565b600073ffffffffffffffffffffffffffffffffffffffff82169050919050565b6000614718826146ed565b9050919050565b6147288161470d565b82525050565b6000602082019050614743600083018461471f565b92915050565b7f4e487b7100000000000000000000000000000000000000000000000000000000600052602260045260246000fd5b6000600282049050600182168061479057607f821691505b6020821081036147a3576147a2614749565b5b50919050565b60008190508160005260206000209050919050565b60006020601f8301049050919050565b600082821b905092915050565b60006008830261480b7fffffffffffffffffffffffffffffffffffffffffffffffffffffffffffffffff826147ce565b61481586836147ce565b95508019841693508086168417925050509392505050565b6000819050919050565b600061485261484d61484884613b84565b61482d565b613b84565b9050919050565b6000819050919050565b61486c83614837565b61488061487882614859565b8484546147db565b825550505050565b600090565b614895614888565b6148a0818484614863565b505050565b5b818110156148c4576148b960008261488d565b6001810190506148a6565b5050565b601f821115614909576148da816147a9565b6148e3846147be565b810160208510156148f2578190505b6149066148fe856147be565b8301826148a5565b50505b505050565b600082821c905092915050565b600061492c6000198460080261490e565b1980831691505092915050565b6000614945838361491b565b9150826002028217905092915050565b61495e82613dbe565b67ffffffffffffffff81111561497757614976613bd5565b5b6149818254614778565b61498c8282856148c8565b600060209050601f8311600181146149bf57600084156149ad578287015190505b6149b78582614939565b865550614a1f565b601f1984166149cd866147a9565b60005b828110156149f5578489015182556001820191506020850194506020810190506149d0565b86831015614a125784890151614a0e601f89168261491b565b8355505b6001600288020188555050505b505050505050565b6000819050919050565b614a42614a3d82613b84565b614a27565b82525050565b6000614a548286614a31565b602082019150614a648285614a31565b602082019150614a748284614a31565b602082019150819050949350505050565b600081905092915050565b6000614a9b82613dbe565b614aa58185614a85565b9350614ab5818560208601613dda565b80840191505092915050565b6000614acd8284614a90565b915081905092915050565b7f4e487b7100000000000000000000000000000000000000000000000000000000600052603260045260246000fd5b60008154614b1481614778565b614b1e8186614a85565b94506001821660008114614b395760018114614b4e57614b81565b60ff1983168652811515820286019350614b81565b614b57856147a9565b60005b83811015614b7957815481890152600182019150602081019050614b5a565b838801955050505b50505092915050565b6000614b968284614b07565b915081905092915050565b7f4e487b7100000000000000000000000000000000000000000000000000000000600052601160045260246000fd5b6000614bdb82613b84565b9150614be683613b84565b9250828203905081811115614bfe57614bfd614ba1565b5b92915050565b6000614c0f82613b84565b9150614c1a83613b84565b9250828201905080821115614c3257614c31614ba1565b5b92915050565b6000614c4382613b84565b91507fffffffffffffffffffffffffffffffffffffffffffffffffffffffffffffffff8203614c7557614c74614ba1565b5b600182019050919050565b6000614c8b82613b84565b915060008203614c9e57614c9d614ba1565b5b600182039050919050565b7f4e6f7420506f737369626c650000000000000000000000000000000000000000600082015250565b6000614cdf600c83613fe3565b9150614cea82614ca9565b602082019050919050565b60006020820190508181036000830152614d0e81614cd2565b9050919050565b7f416363657373207265737472696374656420746f2061646d696e000000000000600082015250565b6000614d4b601a83613fe3565b9150614d5682614d15565b602082019050919050565b60006020820190508181036000830152614d7a81614d3e565b9050919050565b7f496e76616c6964204f7074696f6e7320476976656e0000000000000000000000600082015250565b6000614db7601583613fe3565b9150614dc282614d81565b602082019050919050565b60006020820190508181036000830152614de681614daa565b9050919050565b7f44657374696e6174696f6e206f6666696365206e6f7420666f756e642077697460008201527f68207468652073706563696669656420706f73742e0000000000000000000000602082015250565b6000614e49603583613fe3565b9150614e5482614ded565b604082019050919050565b60006020820190508181036000830152614e7881614e3c565b905091905056fea2646970667358221220d7d6139cf8a740416c6e2bbd555dd91549cbb57db024702dd64d0bebce4b845c64736f6c63430008120033",
  "linkReferences": {},
  "deployedLinkReferences": {}
}